:020000040800F2
:10000000D00A0020290200082B20000877190008D8
:10001000292000080D050008432700080000000003
:100020000000000000000000000000002F20000879
:100030000F050008000000002D20000831200008F6
:10004000430200084302000843020008430200087C
:10005000430200084302000843020008430200086C
:10006000430200084302000843020008430200085C
:10007000430200084302000843020008430200084C
:10008000430200084302000843020008430200083C
:10009000430200084302000843020008430200082C
:1000A000430200084302000843020008430200081C
:1000B000430200084302000843020008430200080C
:1000C00043020008430200084302000843020008FC
:1000D00043020008430200084302000841240008CC
:1000E00043020008430200084302000843020008DC
:1000F00043020008430200084302000843020008CC
:1001000043020008430200084302000843020008BB
:1001100043020008430200084302000843020008AB
:10012000430200084302000843020008430200089B
:10013000430200084302000843020008430200088B
:10014000430200084302000843020008430200087B
:10015000430200084302000843020008430200086B
:10016000430200084302000843020008430200085B
:100170004302000843020008430200080000000098
:10018000430200084302000800F002F800F03CF8C7
:100190000AA090E8000C82448344AAF10107DA45E2
:1001A00001D100F031F8AFF2090EBAE80F0013F0F8
:1001B000010F18BFFB1A43F0010318471026000077
:1001C00030260000103A24BF78C878C1FAD8520708
:1001D00024BF30C830C144BF04680C6070470000C1
:1001E0000023002400250026103A28BF78C1FBD840
:1001F000520728BF30C148BF0B6070471FB502F0DF
:10020000D4FA1FBD10B510BD00F04AF91146FFF732
:10021000F5FF02F0A7FA00F068F903B4FFF7F2FF68
:1002200003BC00F06DF90000094880470948004709
:10023000FEE7FEE7FEE7FEE7FEE7FEE7FEE7FEE796
:10024000FEE7FEE704480549054A064B70470000F3
:10025000C920000889010008D0040020D00A00202D
:10026000D0060020D006002053EA020C00F069807E
:100270002DE9F04B4FF00006002B1FBFB3FA83F5BA
:1002800003FA05F424FA05F65E4012BF1643B2FAEB
:1002900082F502FA05F4C5F120051EBF22FA05FC1D
:1002A00044EA0C04203556EA044C4FEA144418BFC3
:1002B000641C4FF000084FF00009904271EB030CF2
:1002C00039D3002919BFB1FA81F701FA07F6B0FA5C
:1002D00080F700FA07F6C7F120071EBF20FA07FCD7
:1002E00046EA0C062037B6FBF4FCA7EB0507103FE7
:1002F00007F01F0BCBF120060CFA0BFB2CFA06F6CD
:1003000044BFB3460026202FA4BF5E464FF0000B2B
:100310005BEA060C08BF4FF0010B19EB0B09ABFBB6
:10032000027C48EB0608C01B06FB02CC0BFB03CC8F
:1003300071EB0C01C1E70B46024641464846BDE859
:10034000F08B13B54FF000004FF00001AFF30080C9
:10035000BDE81C407047032A40F2308010F0030CC7
:1003600000F0158011F8013BBCF1020F624498BF08
:1003700011F801CB00F8013B38BF11F8013BA2F1A5
:10038000040298BF00F801CB38BF00F8013B11F020
:10039000030300F04F80083AC0F0088051F8043B96
:1003A000083A51F804CBA0E80810F5E7121D5CBF2D
:1003B00051F8043B40F8043BAFF30080D20724BF60
:1003C00011F8013B11F801CB48BF11F8012B24BFF4
:1003D00000F8013B00F801CB48BF00F8012B704743
:1003E0004FF0000200B5134694469646203922BFCE
:1003F000A0E80C50A0E80C50B1F12001BFF4F7AF19
:10040000090728BFA0E80C5048BF0CC05DF804EBFA
:10041000890028BF40F8042B08BF704748BF20F868
:10042000022B11F0804F18BF00F8012B7047704766
:100430007047704710B5203AC0F00B80B1E81850F3
:10044000203AA0E81850B1E81850A0E81850BFF4BE
:10045000F5AF5FEA027C24BFB1E81850A0E818505D
:1004600044BF18C918C0BDE810405FEA827C24BFB1
:1004700051F8043B40F8043B08BF7047D20728BF3F
:1004800031F8023B48BF11F8012B28BF20F8023B8E
:1004900048BF00F8012B7047004870476C040020EB
:1004A0007546FFF7F9FFAE4605006946534620F052
:1004B0000700854618B020B5FFF7C4FEBDE8204010
:1004C0004FF000064FF000074FF000084FF0000B10
:1004D00021F00701AC46ACE8C009ACE8C009ACE8C3
:1004E000C009ACE8C0098D46704710B50446AFF3AB
:1004F00000802046BDE81040FFF78FBE7047000027
:1005000001491820ABBEFEE726000200FEE7704757
:1005100072B6FEE790F83510022903D080214165BC
:1005200001207047052180F835100068016821F02E
:1005300001010160002070472DE9F84FDFF8BCA1F0
:100540000022012503264FF00F090AF1040BAAF13E
:10055000040E00BF0B6805FA02F42340A34270D1D9
:100560000F7907F00307012F01D0022F16D18768FA
:100570004FEA420806FA08FC27EA0C07D1F80CC03B
:100580000CFA08FC4CEA070CC0F808C04768A743FF
:100590000C79C4F3001494403C4344600C79E44368
:1005A000A4070AD0C4684FEA420C06FA0CF7BC4311
:1005B0008F6807FA0CF72743C7600C7904F003042F
:1005C000022C12D1D40800EB840CDCF82040570731
:1005D000FF0E09FA07F824EA0804D1F8108008FA97
:1005E00007F848EA0408CCF8208004684FEA420C77
:1005F00006FA0CF7BC430F7907F0030707FA0CF76C
:10060000274307604C6814F4403F70D03C4C276887
:1006100047F480472760246822F0030704F48044ED
:100620000094384C07EB040CDCF8084897074FEAB5
:10063000177809FA08F7BC43334FB84202D10027B4
:1006400024E054E0314FB84201D101271EE0304F81
:10065000B84201D1022719E02E4FB84201D1032739
:1006600014E02D4FB84201D104270FE02B4FB842C0
:1006700001D105270AE02A4FB84201D1062705E03B
:10068000284FB84201D1072700E0082707FA08F7EA
:100690002743CCF80878DAF800405746D1F804C070
:1006A0009C435FEACC2C00D51C433C60DBF8004047
:1006B0005F46D1F804C09C435FEA8C2C00D51C43F4
:1006C0003C60DEF800407746D1F804C09C435FEA06
:1006D0008C3C00D51C433C60084F083F3C68D1F877
:1006E00004C09C435FEACC3C00D51C433C60521CD8
:1006F000102AFFF42FAFBDE8F88F0000083C01403E
:100700004438024000300140000002400004024032
:1007100000080240000C0240001002400014024099
:1007200000180240001C02400AB1816170470904B0
:10073000FBE70000014880687047000004000020CB
:1007400070B5040025D094F83D00002520B984F848
:100750003C50204600F0B8F8242084F83D00206882
:10076000016821F0010101602068016841F4004145
:1007700001602068016821F40041016000F04CFA3A
:100780004D4A6168914201D84C4900E04C49884289
:1007900001D2012070BD4B492368B0FBF1F15E68C6
:1007A00026F03F060E435E606368934206D94FF41D
:1007B000967359434FF47A73B1FBF3F12368491CE4
:1007C0001E6A26F03F06314319626168914210D8D3
:1007D0004900401EB0FBF1F2521CC2F30B02042A86
:1007E00001D2042022E0B0FBF1F0401CC0F30B006A
:1007F0001CE0A268F2B301EBC10303EB0116431E38
:10080000B3FBF6F35B1C43F480431B0549D092B362
:1008100001EBC10202EB0111401EB0FBF1F0401CE4
:10082000C0F30B0040F4804040F400402168CA69E6
:100830004CF6FF739A431043C861D4E90710014393
:100840002068026822F0C00211430160D4E903016C
:1008500001432068826848F2FF339A431143816064
:10086000D4E9050108432168CA6822F0FF02104359
:10087000C86001E00EE016E02068016841F0010167
:1008800001602564202084F83D00256384F83E50F3
:10089000002070BD01EB4106431EB3FBF6F35B1C69
:1008A000B3E70120C2E701EB4101401EB0FBF1F0CC
:1008B000401CC0F30B00B7E7A086010080841E0037
:1008C00000093D0040420F002DE9F04186B004468A
:1008D00014216846FFF784FD2F4A2168DFF8BC80A9
:1008E00000242E4812250326042708F110089142FF
:1008F0001CD1016841F002010160006802AA00F009
:1009000002000590B002CDE9000582E8D0006946FA
:100910002348FFF711FED8F8001041F48001C8F811
:100920000010D8F8000000F4800031E01D4A914228
:100930002FD1016841F004010160016801F0040158
:100940000591016841F0010101600068694600F00D
:10095000010005905015CDE9000502AA124882E871
:10096000D000FFF7E9FD4FF48070CDE9000502AA41
:10097000694682E8D0000D48FFF7DEFDD8F8001088
:1009800041F40001C8F80010D8F8000000F400009D
:10099000059006B0BDE8F0810058004030380240B4
:1009A00000040240005C00400008024000000240D9
:1009B0000248816802781144816070470400002079
:1009C0000B4810B5016841F400710160016841F401
:1009D00080610160016841F480710160032000F0D2
:1009E0006FF80F2000F006F800F024F8002010BD8A
:1009F000003C024070B50D4D04464FF47A712878E2
:100A0000B1FBF0F00A490968B1FBF0F000F00CFB13
:100A100048B9102C07D200222146501E00F030F8B1
:100A200000206C6070BD012070BD0000040000203B
:100A3000100000200A4808B5016841F480410160B7
:100A4000006800F4804000900548001F016841F0F4
:100A500080510160006800F08050009008BD0000E7
:100A600044380240002809DB00F01F0201219140B8
:100A70004009800000F1E020C0F80011704700003C
:100A8000F0B40E4B1B680C46C3F30223C3F10705F9
:100A9000042D00D90425191D072901D2002300E0E7
:100AA000DB1E012606FA05F1491E214099409E40B1
:100AB000761E16403143F0BC01F044BE0CED00E060
:100AC000064900F0070208684FF6FF03184040EAA5
:100AD0000220034A10430860704700000CED00E05C
:100AE0000000FA052DE9F0470E46050065D0DFF855
:100AF0001481D8F80000F7B200F00700B04207D226
:100B000088F80070D8F8000000F00700B04254D117
:100B100028683D4C810712D5400703D5206840F472
:100B2000E05020602878000703D5206840F460403A
:100B300020602068A96820F0F00008432060287831
:100B4000C0072DD0304968680839012812D0022822
:100B500013D0032811D00968890700292DDA2168EC
:100B600021F0030101432160FFF7E4FD814641F2DA
:100B7000883A0EE009688903EFE709688901ECE724
:100B8000FFF7D8FDA0EB0901514502D90320BDE8CC
:100B9000F0872068696800F00C00B0EB810FEFD19E
:100BA000D8F80010404601F00701B14207D907709C
:100BB000006800F00700B04201D00120E7E7287884
:100BC000400705D52068E96820F4E050084320601C
:100BD0002878000706D52068296920F4604040EA9B
:100BE000C100206000F038F82168084AC1F3031101
:100BF000515CC8400649086006480068FFF7FAFEE5
:100C00000020C4E7003C024008380240B427000836
:100C10001000002008000020044805490068096809
:100C2000044AC1F38221515CC84070471000002083
:100C300008380240C42700080448054900680968CC
:100C4000044AC1F34231515CC84070471000002093
:100C500008380240C4270008154810B5006810F095
:100C60000C02144813D01449042A0FD0082A0ED1BC
:100C70000F4C241F2268236802F03F025B0207D555
:100C80002068C0F38810A0FB010106E0084610BDF3
:100C90002168C1F38811A1FB00010023FFF7E4FAEA
:100CA0002168C1F30141491C4900B0FBF1F010BDBE
:100CB000083802400024F40040787D012DE9F84F07
:100CC00004006ED02078DFF84C93C007A9F104052A
:100CD0004AD009F104000168C1F38101012908D05B
:100CE0000068C0F3810002280AD1D9F80000400250
:100CF00006D52868800337D560680028E1D033E046
:100D00006068B0F5803F10D0B0F5A02F286810D0F3
:100D100020F480302860286820F4802028606068F3
:100D2000A8B1FFF707FD06460DE0286840F48030C3
:100D3000F4E740F480202860F7E700BFFFF7FAFCF3
:100D4000801B642873D828688003F7D50CE0FFF770
:100D5000F1FC064605E000BFFFF7ECFC801B6428B1
:100D6000F0D828688003F7D42078DFF8AC828007B9
:100D70004FF0000A3ED5A748001D016811F00C0F86
:100D800008D00068C0F3810002280BD1D9F8000018
:100D9000400207D42868800716D5E068012800D1F2
:100DA00012E033E1E068B8B10120C8F80000FFF7B5
:100DB000C1FC064605E000BFFFF7BCFC801B022813
:100DC000C0D828688007F7D52868216920F0F80086
:100DD00040EAC10028600DE0C8F800A0FFF7AAFCB7
:100DE000064604E0FFF7A6FC801B02281FD82868EF
:100DF0008007F7D42078000722D5864F874861699D
:100E0000703771B101210160FFF794FC064604E0E0
:100E1000FFF790FC801B022809D838688007F7D5B7
:100E20000EE0C0F800A0FFF785FC064605E082E072
:100E3000FFF780FC801B02287DD838688007F7D434
:100E40002078400768D5DFF8CCB100270BF13C0BC8
:100E5000DBF80000C0000BD4DBF8001041F080513B
:100E6000CBF80010DBF80000012700F08050009064
:100E70006B4E3068C00510D4306840F4807030602C
:100E8000FFF758FC009005E0FFF754FC0099401A6A
:100E9000022850D83068C005F6D55E4EA0686C3682
:100EA00001280FD00528306810D020F001003060F4
:100EB000306820F004003060A068B8B1FFF73AFC59
:100EC00000900FE0306840F00100F4E740F00400CB
:100ED0003060F7E7FFF72EFC0099411A41F28830A5
:100EE000814266D830688007F4D50EE0FFF722FC17
:100EF000009007E0FFF71EFC0099411A41F288308C
:100F0000814256D830688007F4D42FB1DBF8001046
:100F100021F08051CBF80010A069C8B33D49091DEC
:100F20000968C1F3810102294AD00228504607D03E
:100F3000C8F8600000E03CE0FFF7FCFB04463BE043
:100F40004746C8F86000FFF7F5FB064605E000BF1E
:100F5000FFF7F0FB801B02282BD828688001F7D40C
:100F6000D4E907010843A16A2E4A490802EB01416E
:100F7000626A41EA8211084394F82C1040EA016148
:100F8000C9F8001001203866FFF7D4FB044606E0DC
:100F90003EE000BFFFF7CEFB001B022809D82868FF
:100FA0008001F7D534E000BFFFF7C4FB001B022827
:100FB00002D90320BDE8F88F28688001F4D427E027
:100FC0000128F7D0D9F80000E26900F480019142CD
:100FD0001CD1226A00F03F01914217D147F6C0713F
:100FE000626A0140B1EB821F10D1A26A4FF0FF3359
:100FF00000F4403103EB5202B1EB024F06D194F8FA
:101000002C1000F07060B0EB016F01D00120D1E72F
:101010000020CFE70438024000004742800E4742DC
:10102000007000400000FFFF10B5401EB0F1807F4F
:1010300001D3012010BD4FF0E02460610F21601743
:1010400001F080FB0020A06107202061002010BD7E
:1010500070B590F83C20012A32D0012480F83C4041
:10106000022280F83D2003685A689D6822F07006CD
:101070000A6832435A60134B02689A4214D0B2F1A4
:10108000804F11D0104B9A420ED0104B9A420BD089
:101090000F4B9A4208D00F4B9A4205D00E4B9A4202
:1010A00002D00E4B9A4204D1496825F080031943BF
:1010B000916080F83D40002180F83C10084670BDEA
:1010C000022070BD00000140000400400008004004
:1010D000000C0040000401400040014000180040A6
:1010E00010B5040003D094F83D0010B107E00120D2
:1010F00010BD002084F83C00204600F01FF80220BC
:1011000084F83D00211D206800F0E6FF012084F8EE
:10111000460084F83E0084F83F0084F8400084F8DC
:10112000410084F8420084F8430084F8440084F8C5
:10113000450084F83D00002010BD000008B50C4AB1
:1011400001680C48914207D1016841F080010160BB
:10115000006800F0800009E0074A914207D1016869
:1011600041F480710160006800F48070009008BD57
:10117000001C004040380240002000402DE9F041B2
:101180000D46040003D094F83D0018B108E001209A
:10119000BDE8F081002084F83C00204600F040F8D3
:1011A000022084F83D002068816844F207029143E0
:1011B0008160211D206800F08FFF2268906891698E
:1011C000166A2B68AF69034340F20330814341EA5A
:1011D0000721A868EF6908434FF6FC418843E96896
:1011E00040EA0720014328692F6A000140EA0730DE
:1011F000084369686D6926F0AA0646EA0515294381
:1012000093602268906154F8460B0162012004F853
:101210001F09E0752076E0762077A0750020B7E7FB
:1012200030B587B0044614216846FFF7D9F8246822
:101230003E4B00213E4802229C421CD13C4B1433C1
:101240001C6844F001041C601B6803F00103059353
:10125000036843F010030360006800F0100005907D
:101260004FF420600090CDE901210120CDE9031069
:10127000694630481CE02E4B2F4D1033AC421BD139
:101280001C6844F002041C601B6803F00203059311
:10129000036843F002030360006800F00200059059
:1012A00030200090CDE90121CDE9031269462348A1
:1012B000FFF742F907B030BD214DAC4219D11C688F
:1012C00044F004041C601B6803F0040305930368E6
:1012D00043F008030360006800F0080005904FF435
:1012E00040500090CDE90121CDE90312694615482F
:1012F000DEE7154DAC42DDD11C6844F008041C60EB
:101300001B6803F008030593036843F001030360BF
:10131000006800F00100059003200090CDE9012154
:10132000CDE9031269460948C2E700000000014008
:101330003038024000100240000400400004024027
:1013400000080040000C0240000C00400000024079
:1013500070B586B0044614216846FFF741F824684A
:101360000022314902233148B4F1804F18D0304D6A
:10137000AC4226D1086840F0100008600868694651
:1013800000F01000059060200090CDE901320320AC
:10139000CDE90320274800BFFFF7CEF806B070BDA7
:1013A0000C6844F001040C60096801F0010105912A
:1013B0002C210091CDE901320121CDE903216946BB
:1013C000EAE71D4E0925B4420ED1086840F002003C
:1013D00008600868694600F002000590E00000908F
:1013E000CDE9013215481CE0154EB44209D10C6814
:1013F00044F001040C60096801F0010105914021ED
:101400000BE0104EB442C9D10C6844F001040C60EA
:10141000096801F00101059180210091CDE90132B7
:101420006946CDE90325B7E73038024000000240A5
:10143000004001400010024000180040000402403B
:10144000001C00400020004070B5044690F83C00AD
:1014500000260D4601280FD0012084F83C006AB117
:10146000042A1DD0082A2FD00C2A3FD001260020A4
:1014700084F83C00304670BD022070BD206800F04A
:1014800097FE2068816941F00801816120688169C7
:1014900021F004018161206881692A69114311E00A
:1014A000206800F0B5FE2068816941F40061816127
:1014B0002068816921F480618161206881692A69DD
:1014C00041EA02218161D2E7206800F0D7FE20685E
:1014D000C16941F00801C1612068C16921F00401BE
:1014E000C1612068C1692A69114311E0206800F0D8
:1014F000F9FE2068C16941F40061C1612068C169D9
:1015000021F48061C1612068C1692A6941EA022130
:10151000C161ACE710B5040003D094F83D0010B1F0
:1015200007E0012010BD002084F83C00204600F0B8
:101530001FF8022084F83D00211D206800F0CCFD3A
:10154000012084F8460084F83E0084F83F0084F8C7
:10155000400084F8410084F8420084F8430084F895
:10156000440084F8450084F83D00002010BD0000D0
:1015700008B501681148B1F1804F0CD0104A914272
:1015800011D1001D016841F480310160006800F450
:101590008030009008BD016841F0010101600068E1
:1015A00000F00100F5E7074A9142F3D1016841F0EC
:1015B00040010160006800F04000EAE74038024066
:1015C000004001400018004070B5040004D094F8B9
:1015D0004100002510B106E0012070BD84F84050A4
:1015E000204600F023F8242084F841002068C168D8
:1015F00021F40051C160204600F09CFE2068016982
:1016000021F4904101612068416921F02A01416182
:101610002068C16841F40051C1606564202084F8ED
:10162000410084F842006563002070BD10B586B0AB
:10163000044614216846FEF7D3FE14492068884208
:1016400021D113480021026842F0100202600068B4
:1016500000F0100005900E481438026842F00102B4
:101660000260006800F0010005904FF4C060009037
:101670000220CDE901010320039007200490694670
:101680000448FEF759FF06B010BD000000100140ED
:1016900044380240000002407047000070B5026804
:1016A00004461068D168536910F00F0F56D003F04C
:1016B000010501F490762E436AD0C20705D0CA0511
:1016C00003D5226C42F001022264420705D5DA07F5
:1016D00003D0226C42F002022264820705D5DA07A9
:1016E00003D0226C42F004022264020707D501F005
:1016F00020022A4303D0226C42F008022264226CAA
:10170000002A3ED0800608D5880606D594F83D000C
:10171000222820462FD000F0A9FF20684069216CC4
:10172000C0F38010090700D460B3204600F0DAFE51
:1017300020684169490621D5416921F04001416194
:10174000A06BD8B138490165A06BFEF7E3FE002815
:1017500017D0A06B016DBDE870400847830617D510
:101760008B0615D594F83D00222819D12046BDE8F6
:10177000704000F0C9BE00F0C7FECEE72046FFF77C
:101780008BFF70BD2046FFF787FF0020206470BDEF
:10179000030634D50B0632D594F83D00122804D048
:1017A0002046BDE8704000F061BF94F83D0012286B
:1017B000EDD1A068B0F5805F01D12069B0B1606A59
:1017C000411C6162216800784860608D401E000401
:1017D000000C6085DBD12068C16821F08001C16008
:1017E0002068C16841F04001C16070BD606A008836
:1017F000C0F308005060606A801C6062E5E7400644
:10180000F3D54806F1D5D168204621F04001D160DA
:1018100021684A6922F001024A61012184F83D10E1
:1018200000F0A7F870BD0000D524000870B50400D2
:1018300004D094F83D00002510B106E0012070BDF1
:1018400084F83C50204600F01BF8022084F83D004C
:10185000204600F0A1FE2068016921F48041016169
:101860002068416921F02A0141612068C16841F482
:101870000051C1602564012084F83D00002070BD46
:101880002DE9F04186B0044614216846FEF7A8FD14
:10189000324A21680024324802250326DFF8C4803A
:1018A000914239D12E4910310A6842F480220A60EF
:1018B000096801F480210591016841F00801016087
:1018C000016801F008010591016841F0040101601F
:1018D000006802AA00F0040005903002CDE900057E
:1018E000072782E8D00069461F48FEF725FEE80278
:1018F000CDE9000502AA694682E8D0004046FEF71D
:101900001BFE002211462720FFF7BAF82720FFF719
:10191000A9F806B0BDE8F081144A9142F9D1104906
:1019200014310A6842F020020A60096801F02001BF
:101930000591016841F0040101600068029400F023
:10194000040005904FF4E070CDE900050820CDE9D2
:10195000036069464046FEF7EFFDDAE700480040C5
:101960003038024000080240000C024000140140E0
:10197000704770477047FEE72DE9F04F87B014219C
:101980006846FEF72DFD63480024016841F0100110
:101990000160016801F010010591016841F0040146
:1019A0000160016801F004010591016841F0200126
:1019B0000160016801F020010591016841F080019A
:1019C0000160016801F080010591016841F00101A9
:1019D0000160016801F001010591016841F04001D9
:1019E0000160016801F040010591016841F00201C8
:1019F0000160016801F002010591016841F00801F0
:101A000001600068002200F0080005901C21424897
:101A1000FEF78AFEDFF80481002201214046FEF72E
:101A200083FEDFF8FCA00022FF215046FEF77CFE7B
:101A3000DFF8F0B04FF44056002231465846FEF72A
:101A400073FEDFF8E490B710002239464846FEF7EF
:101A50006BFE1C2000900125CDE9015469462E48FB
:101A60000394FEF769FD0095CDE9015469464046AF
:101A70000394FEF761FD4FF42470CDE9000469463C
:101A800040460294FEF758FD0520CDE90004694662
:101A900026480294FEF750FDFF200090CDE9015446
:101AA000694650460394FEF747FD0096CDE9015480
:101AB000694658460394FEF73FFD0097CDE901546F
:101AC000694648460394FEF737FD9220CDE90004AD
:101AD000694648460294FEF72FFD4FF47E40CDE95B
:101AE0000004694650460294FEF726FD4FF45270FA
:101AF000CDE90004694658460294FEF71DFD032017
:101B0000CDE90004694604480294FEF715FD07B0CC
:101B1000BDE8F08F3038024000100240001402404F
:101B20000018024000040240000C0240000802407D
:101B30000D4810B50B4901600C49416000214FF47C
:101B400080428160C0E9031241618161C16101622B
:101B5000FEF7F6FD002803D0BDE81040FEF7D8BC24
:101B600010BD00000058004018000020A0860100B1
:101B70000D4810B50B4901600C49416000214FF43C
:101B800080428160C0E9031241618161C1610162EB
:101B9000FEF7D6FD002803D0BDE81040FEF7B8BC24
:101BA00010BD0000005C00406C000020A086010019
:101BB00010B588B01C216846FEF712FC1548144980
:101BC0000024C0E900144FF6FF71C0E9024104612E
:101BD0008461FFF79FFC08B1FEF79AFC6020CDE915
:101BE00000040294002269460A480494FFF72CFC82
:101BF00008B1FEF78DFC042269460648FFF724FC75
:101C000008B1FEF785FC0348FFF7A2FB08B010BD42
:101C1000001800407002002010B588B01C216846F2
:101C2000FEF7DEFB144813490024C0E900144FF608
:101C3000FF71C0E9024104618461FFF751FA08B104
:101C4000FEF766FC0C48FFF765FC08B1FEF760FC88
:101C50006020CDE9000402940022694606480494FD
:101C6000FFF7F2FB08B1FEF753FC0348FFF770FBE8
:101C700008B010BD001C0040B802002010B588B0AC
:101C80001C216846FEF7ACFB144813490024C0E948
:101C900000144FF6FF71C0E9024104618461FFF74F
:101CA0001FFA08B1FEF734FC0C48FFF733FC08B10B
:101CB000FEF72EFC6020CDE9000402940022694664
:101CC00006480494FFF7C0FB08B1FEF721FC034867
:101CD000FFF73EFB08B010BD0020004000030020CD
:101CE00010B58CB024216846FEF77AFB0024164814
:101CF000099414490A94C0E900144FF6FF71C0E931
:101D000002410461446184610120CDE90004CDE910
:101D100002040494CDE90540079469460A480894F2
:101D2000FFF72CFA08B1FEF7F3FB099409A906485E
:101D30000A94FFF78DF9002801D0FEF7E9FB0CB0FB
:101D400010BD000000000140C000002010B58AB0A6
:101D5000002407941C2168460894FEF741FB1D48A7
:101D60004FF08041C0E90014611EC0E902410461E6
:101D70008461FFF7CFFB08B1FEF7CAFB079407A900
:101D800014480894FFF764F908B1FEF7C1FB60201E
:101D9000CDE900040294002269460E480494FFF73E
:101DA00053FB08B1FEF7B4FB082269460948FFF768
:101DB0004BFB08B1FEF7ACFB0C2269460548FFF768
:101DC00043FB08B1FEF7A4FB0248FFF7C1FA0AB0D3
:101DD00010BD00000801002010B58CB02421684619
:101DE000FEF7FEFA00241548099413490A94C0E945
:101DF00000144FF6FF71C0E90241046184610120C3
:101E0000CDE90004CDE902040494CDE9054007942E
:101E100069460A480894FFF7B1F908B1FEF778FB64
:101E2000099409A905480A94FFF712F9002801D07E
:101E3000FEF76EFB0CB010BD000400405001002006
:101E400010B58CB024216846FEF7CAFA0024154864
:101E5000099413490A94C0E900144FF6FF71C0E9D0
:101E60000241046184610120CDE90004CDE902044E
:101E70000494CDE90540079469460A480894FFF7A1
:101E80007DF908B1FEF744FB099409A905480A94B5
:101E9000FFF7DEF8002801D0FEF73AFB0CB010BDCA
:101EA000000800409801002010B58CB0242168463D
:101EB000FEF796FA00241548099413490A94C0E9DC
:101EC0000014611EC0E90241046184610120CDE972
:101ED0000004CDE902040494CDE905400794694665
:101EE0000A480894FFF74AF908B1FEF711FB099474
:101EF00009A906480A94FFF7ABF8002801D0FEF7BD
:101F000007FB0CB010BD0000000C0040E0010020F9
:101F100010B588B01C216846FEF762FA15481449CE
:101F20000024C0E900144FF6FF71C0E902410461CA
:101F30008461FFF7EFFA08B1FEF7EAFA6020CDE915
:101F400000040294002269460A480494FFF77CFAD0
:101F500008B1FEF7DDFA042269460648FFF774FA75
:101F600008B1FEF7D5FA0348FFF7F2F908B010BD43
:101F700000400140280200200C4810B50A490160C9
:101F80004FF4E1314160002181600C22C160C0E961
:101F900004128161C161FFF717FB002803D0BDE87F
:101FA0001040FEF7B5BA10BD0010014048030020F4
:101FB0000D4810B50B4901604FF4E131416000213B
:101FC00081600C22C160C0E904128161C1610162BB
:101FD000FFF72CFC002803D0BDE81040FEF798BAAC
:101FE00010BD000000480040900300200D4810B5CF
:101FF0000B4901604FF4E1314160002181600C2206
:10200000C160C0E904128161C1610162FFF70EFC89
:10201000002803D0BDE81040FEF77ABA10BD0000DA
:1020200000140140D4030020FEE7FEE7704770472C
:10203000FEF7BEBC30B593B030216846FEF7D0F94C
:1020400014210CA8FEF7CCF91D480025016841F0C9
:1020500080510160006800F08050119019480168BB
:1020600041F4804101600068022400F48040119036
:102070000120039010200490009406940820CDE9DC
:102080000750A820CDE9090404200B906846FEF70C
:1020900015FE08B172B6FEE70CA90F2081E83100E9
:1020A0004FF4A0500F904FF48050109005210CA8D1
:1020B000FEF718FD002801D072B6FEE713B030BD60
:1020C00040380240007000400248016841F470014D
:1020D0000160704788ED00E0F0B50268294C2A4D98
:1020E0002A4E2B4F2B4B4FF0804CA04209D060451D
:1020F00007D0A84205D0B04203D0B84201D09842E0
:1021000004D122F0700E4A6842EA0E02A0421BD0AF
:10211000604519D0A84217D0B04215D0B84213D0AC
:10212000984211D01C4DA8420ED01C4DA8420BD095
:102130001B4DA84208D01B4DA84205D01A4DA842FD
:1021400002D01A4DA84203D122F44075CA682A432E
:102150004D6922F080022A4302608A68C2620A68DE
:102160008262A04201D0984201D109690163012134
:1021700041610169C90703D0016921F001010161D1
:10218000F0BD0000000001400004004000080040D5
:10219000000C0040000401400040014000440140A8
:1021A0000048014000180040001C00400020004092
:1021B000F0B5036A026A22F0010202624268846991
:1021C000124E24F073050C682C4323F002058B6833
:1021D0002B430D4DA84201D0B04205D123F0080792
:1021E000CB683B4323F00403A84201D0B04205D1A1
:1021F0004D6922F4407215438A692A434260846122
:10220000496841630362F0BD0000014000040140E1
:10221000F0B5026A036A23F010030362436884691D
:102220000D6824F4E64444EA05248D6822F0200277
:1022300042EA05120F4D104EA84201D0B04206D11D
:10224000CF6822F0800242EA071222F04002A84240
:1022500001D0B04207D14D6923F4406343EA8503BE
:102260008D6943EA85034360846149688163026242
:10227000F0BD00000000014000040140F0B5026A1A
:10228000036A23F4807303624368C46922F4007212
:1022900024F073050C68124E2C438D6842EA052227
:1022A0000E4DA84201D0B04206D1CF6822F40062A0
:1022B00042EA072222F48062A84201D0B04207D14C
:1022C0004D6923F4405343EA05138D6943EA05132E
:1022D0004360C4614968C1630262F0BD000001400F
:1022E0000004014030B5046A026A22F4805202629E
:1022F0004268C3690D6823F4E64343EA05238D6809
:1023000024F4005444EA0534084DA84202D0084D94
:10231000A84204D14D6922F4804242EA851242600B
:10232000C36149680164046230BD000000000140DF
:102330000004014070B5044600680169E26821F4B8
:102340004051114301612169A068E2690843616954
:10235000114308432168CA6849F20C639A43024357
:10236000CA6020684169A26921F44071114341614A
:1023700031492068884202D03049884202D1FEF7B4
:102380005BFC01E0FEF748FCE269002319216425AB
:102390003226B2F5004F626828D0A0FB0101930FEE
:1023A0009200FDF761FF0146B0FBF5F06FF01802F7
:1023B000504301EB800006EB0010B0FBF5F000F09D
:1023C000F002B1FBF5F002EB0012B1FBF5F06FF09B
:1023D0001803584301EB800006EB0010B0FBF5F04A
:1023E00000F00F0021681044886070BDA0FB01015F
:1023F00092185B41FDF738FF0146B0FBF5F0020192
:10240000B1FBF5F06FF01803584301EB800006EBC9
:10241000C000B0FBF5F000F0F80002EB4002B1FBA9
:10242000F5F0584301EB800006EBC000B0FBF5F07F
:1024300000F00700D6E70000001001400014014042
:1024400070B51E48FFF72AF91C480068C06880066E
:1024500022D51B4800F054F81B4C1A49002522785D
:102460008854521CD2B222700878A42824D1022A9F
:102470000FD0032A11D0042A13D0032A0CD9222A00
:102480001AD2C878401D904206D1104E307860B103
:1024900012E0487803280FD170BD88782C280BD81B
:1024A00070BDC8782C2807D8EBE7094805490078A3
:1024B000FDF751FF01203070257070BD90030020A2
:1024C000001001401804002000000020140000202B
:1024D0003604002010B5806B002141864185FFF74E
:1024E000DBF810BD0168CA6822F49072CA60016806
:1024F0004A6922F001024A61012180F83D107047CB
:102500004068C0F30800704710B590F83D102229CC
:1025100001D0022010BD82684FF480539A4201D14D
:10252000016921B1C16A9A421ED04AB10AE002682B
:10253000C16A5268C2F308020A80C16A891C08E0B5
:1025400002698AB10268526802F07F020A70C16AA9
:10255000491CC162418E491E4186418E39B10068D5
:10256000FF214160002010BD02685268EEE701685B
:10257000CA6822F02002CA600168CA6822F4807228
:10258000CA6001684A6922F001024A61012180F8AB
:102590003D10FFF7EDF9E5E72DE9F041044600684D
:1025A000C16821F00C01C16021680869E56820F468
:1025B0007C52D4E906031843236A2B431843104383
:1025C00040F4006008612068C16849F20C629143E0
:1025D0002369A2681A4363690B431A4342F400411A
:1025E000C1602068416921F4407141611D49206842
:1025F0000027192664254FF03208884202D01A4974
:10260000884202D1FEF718FB01E0FEF705FB616886
:102610004A18A0FB060147EB0703FDF725FE01461C
:10262000B0FBF5F00301B1FBF5F06FF01802504379
:1026300001EB800008EBC000B0FBF5F000F0F80003
:1026400003EB4003B1FBF5F0504301EB800008EBD6
:10265000C000B0FBF5F0216800F007001844886066
:10266000BDE8F081001001400014014010B590F861
:102670003D10322901D0022010BD418D4FF480530E
:1026800011B301680A68D24312061DD482689A42C7
:1026900001D1026952B1426A541C446212784A6004
:1026A000418D491E4185418D49B10DE0426A128834
:1026B000C2F308024A60416A891C4162F0E701687E
:1026C000CA6822F08002CA60418EF9B101680A68C6
:1026D000D24392061AD482689A4209D10269C2B9D9
:1026E000C26A4968C1F308011180C16A891C09E006
:1026F0000AB902696AB1496801F07F01C26A1170C2
:10270000C16A491CC162418E491E4186418E11B188
:1027100015E04968F2E70168CA6822F02002CA6041
:102720000168CA6822F48072CA6001684A6922F0AE
:1027300001024A61012180F83D10FFF71BF90020DA
:1027400010BDFEE70907090E002804DB00F1E020B8
:1027500080F80014704700F00F0000F1E02080F8CE
:10276000141D7047FEF72CF9FFF764FCFFF704F91E
:10277000FFF7DEF9FFF7FCF9FFF7B2FAFFF7E6FA29
:10278000FFF72AFBFFF75CFBFFF78EFBFFF7C0FBB1
:10279000FFF70EFAFFF740FAFFF770FAFFF7ECFBCE
:1027A000FFF706FCFFF722FCFEE74FF04070E1EE7A
:1027B000100A70470000000000000000010203043E
:1027C000060708090000000001020304EC270008C6
:1027D0000000002018000000C401000804280008C0
:1027E00018000020B80A0000E00100080000000006
:1027F0000100000010000000000000000024F400B0
:0428000000000000D4
:040000050800018965
:00000001FF
